:020000040000FA
:020000000D29C8
:0800080083128514A000030E11
:10001000A1000A08A4008C1D59288C111420003A54
:10002000031D59282D145928831614082D398312BD
:10003000A30009302306031D232813087030840011
:100040000C30B900023429302306031D2F28130871
:10005000B7178000840AB90B2E283B2202340C30DB
:100060002306031D40288316141833288312941383
:100070007030840000089300941B37281416023453
:100080002C302306031D502883161418442883128D
:100090009413840A00089300941B48281416023411
:1000A0002830230603195528003401308401B7177E
:1000B00008008B186228210E8300A00E200E240851
:1000C0008A00090014120408A500B71868286F28D0
:1000D000B71DAA286B28BC0A9B3081007328083002
:1000E000C0006F30810006187D280B19782873280E
:1000F0003C19F628BC0A0B116F28603084000330CD
:10010000BF00BC0B85283D108928BC0BF6283D1488
:100110008928061C89280B11AE308100061C9728FF
:100120000B1993288E28BE18F628BE0A8B28BE0B02
:10013000F6289A280B11BA3081000618F6280B19F8
:10014000A2289D280B11E13081000618AA280B195E
:10015000F628A5280B11F1308100DC30B000B00F7B
:10016000B228F6280618AF28B5280B1DB828C528D0
:100170000310800DC00BC228840A0830C000BF0BDA
:10018000C228D228061CC228AA280314800DC00B3E
:10019000CF28840A0830C000BF0BCF28D228061C05
:1001A000CF28AA28023051060319E7280330510648
:1001B0000319EA28043051060319ED2805305106C9
:1001C0000319F028063051060319F328F6285208BF
:1001D000D900F6285208D800F6285208D600F6288A
:1001E0005208D500F6285208D700F6281416BC018C
:1001F000BE018B10B710B710B7113713B71625080B
:100200008400210E8300A00E200E09007F39831682
:100210008D000C140C088312080083161830870414
:1002200083123630940083169401941711101E30F7
:1002300093008C150B178B17F1308600203085004A
:1002400082308100D0308B006430920083120C30F9
:10025000970002309500043092004430D2004530BF
:10026000D1004230D0003130900007309C0086141D
:10027000271840292A22B91B3B2227141030752940
:10028000A71848292A22B91B3B22A7140730752931
:10029000271950292A22B91B3B2227150D30752911
:1002A000A71958292A22B91B3B22A71510307529F6
:1002B000271A60292A22B91B3B22271607307529E5
:1002C000A71A68292A22B91B3B22A7160D307529C7
:1002D000271B70292A22B91B3B222717603075295A
:1002E000A701B91B3B2205153829A600B9138312B3
:1002F00084212608922938291416250884008B1099
:100300008B173718752938298B17B7120B11D03076
:100310008100061C8429061C84290B1D8B29B71A11
:100320008429080014128B13E2000408A500C101FF
:100330000330E0000030E100831613088312371405
:100340005F3084000330BF00061C38290922C7290A
:10035000840A0830C000C114D32910303522800D22
:10036000BF03840A0830C0004115D329103035225C
:10037000800DBF03840A0830C000C115D329103096
:100380003522800DBF031422861437107C29861471
:10039000323035228614061CFB2964303522861043
:1003A00096303522A829801FD629E22986141330D9
:1003B0003522800DC00BF7298610C119BF294119BC
:1003C000B629AD298614800D033035228614061C0B
:1003D0007C291A303522061C002A06303522C00B33
:1003E000F7298610C119BF294119B629AD298610F0
:1003F00014303522D329B715B7148B178B1438292D
:100400008013C00B042A38293716B7148B178B14A6
:1004100038298610F230BA000230BB00BA0B112A1C
:10042000BB0B0E2A8614080000000000000000002C
:1004300000000000000000000000000008001E3066
:10044000B6004F30B500B60B262AB50B232A282A52
:10045000000008000E30BA002830BB00BA0B312A69
:10046000BB0B2E2A332A00000800C4000000000045
:10047000C40B362A08005330730603194D2A513035
:1004800073060319662A0530730603196D2A333083
:1004900073060319B02A0230A12A0130F0000F3090
:1004A000F1000A30F2005030F3000030F40055083B
:1004B000F5005608F6005708F7005808F8005908E4
:1004C000F900FF30FA00FF30FB0008007508D50086
:1004D0007608D600F708D7000800F401FF30F500D1
:1004E000F600F700F800F900023074060319882AB4
:1004F0000330740603198D2A043074060319922AF6
:10050000053074060319972A0630740603199C2ACD
:10051000431D08000230F4000800C31D080003302A
:10052000F4000800431E08000430F4000800C31E55
:1005300008000530F4000800431F08000530F400EF
:100540000800F4007308F5000F30F1000A30F200E3
:100550001530F300FF30F600F700F800F90008004E
:02400E00723FFF
:0842000003000200050040006C
:00000001FF
