:020000040000FA
:02000000C62810
:08000800A000030EA1000B1182
:10001000B2180B281228B21D4D280E28B40A9B30A6
:10002000810016280830B8003530810005192028D5
:100030000B191B28162834197928B40A0B11122819
:10004000403084000330B700B40B282835142C2826
:10005000B40B7928B5142C28051D2C280B119130D0
:100060008100051D3A280B1936283128B618792841
:10007000B60A2E28B60B79283D280B119130810045
:10008000051979280B19452840280B11E13081000A
:1000900005194D280B19792848280B11E8308100E3
:1000A000F830AE00AE0F5528792805195228582887
:1000B0000B1D5B2868280310800DB80B6528840A87
:1000C0000830B800B70B65287528051D65284D2830
:1000D0000314800DB80B7228840A0830B800B70BDF
:1000E00072287528051D72284D28B216C20B792872
:1000F000B217B401B6018B10B210B210B2113213A4
:100100002F10210E8300A00E200E0900CB3081009D
:10011000B301051E94280B1D89280B11B30AB31BCC
:100120009428CB308100892803102F1C08002F1041
:100130003308AB0001088B107F302B02031CA22870
:100140007F30AB00031008302B02031CA828AA281C
:10015000AB17AC28AB13AC283C308F00AF308E000F
:100160000800B212B21FEC288B13031032140830AF
:100170002B02031CAB1709211729092117297F39E5
:1001800083169B001C141A088312080083161C3067
:1001900085009F0188308100FF2390008312113079
:1001A000900007309900850185160F302B30003004
:1001B00081008B100030BF20C0000130BF20BA008A
:1001C0000230BF20C2000130A7003C308F00AF30AA
:1001D0008E0050308B00BD218B13DC21DC21DC2113
:1001E000F8280310B428EC283218BD28AB13EC28EB
:1001F0002F140C1005140000000000000000000087
:1002000000000000000000000510051E05298620E2
:10021000F1288B170B11B21246308100051D0929F8
:10022000051D09290B1D1029B21A092908008B1375
:100230003A08C1003F3084000330B700B9012B08F1
:10024000C200B6214129840A0830B800B9147529C2
:1002500000000000800DB703840A0830B80039158B
:10026000752900000000800DB703840A0830B8002B
:10027000B9157529800DB703D12185163210B21337
:10028000F428D121D121D12100000000000000007C
:100290000000000000000000051DA729D121D12188
:1002A000D121D121D121D121000000000000000086
:1002B000000000000000000000008512D121D121C3
:1002C000D121D121D121D121D121D121D121000090
:1002D000000000000000000000000000000000001E
:1002E00000000000000000002329801F78298429D5
:1002F0008516D1210000800DB80BA4298512B919EB
:100300003A293919312928298516D1210000000000
:10031000051DF4280000000000000000000000009F
:1003200000000000800D051DAC2900000000000049
:100330000000000000000000B80BA4298512B919C4
:100340003A293919312928298512D1217529B2155F
:10035000B214D2308B00EC288013B80BB029EC28F3
:100360003216B214D0308B008B14EC288512513029
:10037000AA00AA0BB929851608001E30B1004F301B
:10038000B000B10BC429B00BC129C6290000080078
:100390000E30A300A30BCA2900000800CF29D029E2
:1003A0000800000000000000000000000000000045
:1003B0000000000000000800CE30B1000830B0009E
:0E03C000B10BE329B00BE029E529000008008D
:02400E00A43FCD
:06420000030001000F00A5
:00000001FF
