:020000040000FA
:020000000829CD
:08000800A000030EA1000B1182
:100010000B187F28B1180D281428B11D502810285E
:10002000B20A9B30810018280830B6001E308100CB
:10003000061822280B191D2818283219A828B20AD8
:100040000B111428403084000330B500B20B2A286D
:1000500033102F28B20BA828331405172F28061C9D
:100060002F280B1191308100061C3D280B193928CF
:100070003428B418A828B40A3128B40BA82840287A
:100080000B11913081000618A8280B194828432825
:100090000B11E1308100061850280B19A8284B28B5
:1000A0000B11E8308100F830AA00AA0F5828A828C0
:1000B000061855285B280B1D5E286B280310800D41
:1000C000B60B6828840A0830B600B50B6828782873
:1000D000061C682850280314800DB60B7528840A66
:1000E0000830B600B50B75287828061C75285028EE
:1000F000C21B8B28331CA828421F85289728F03064
:100100000605AE00B1170B10A828F0304205103AD2
:10011000031DA828A5281C30A804A8122808AB0095
:10012000B11605198515051D85113914A828420831
:10013000A800A81EAB0018302805183A031DA828EF
:1001400005198515051D8511A8284208A900B116B5
:10015000B201B4018B10B110B110B1113113B1164D
:10016000210E8300A00E200E0900A81AFD282B18CE
:10017000D028D228AB18D428D6282B19CA28CD28A5
:10018000AB1DC4282B1AD828AB19E728ED282B1A49
:10019000EF28F52863309500C02805309500C02869
:1001A0000514BA280510BA288514BD288510BD2865
:1001B0003918DF280C1C37290C308506F72805155F
:1001C00085153910DA28051185113914C4288511CF
:1001D0000C1C372904308506F7280511C72805119E
:1001E0000C1C372908308506F728851137290B3074
:1001F0008F00DB308E000C10372940215029352923
:1002000035297F3983169B001C141A0883120800B5
:100210008316F130860020308500883081006430FC
:10022000920083120C309700053095000430920044
:100230003130900007309F000830B6000930A5002B
:1002400000300121C00001300121AD000230012148
:10025000AC000230B101AE0186004030AB00A80016
:100260008501D8308B002B222B22B701B528B11B7A
:100270003B2935292B2240215029D8308B003529A4
:1002800085178B17B1120B1128308100061C4029ED
:10029000061C40290B1D4829B11A40298513080066
:1002A0008B130B130B128B110330C000B11B5D2994
:1002B0002C08C1002B08C20063292E08C200C20E00
:1002C00042162D08C1003F3084000330B500061CE3
:1002D000352919229029840A0830B600B714BC29A0
:1002E00000000000800DB503840A0830B600371501
:1002F000BC2900000000800DB503840A0830B60058
:10030000B715BC29800DB50320228614B11B8E2998
:10031000A81A8B293D292B08A8003D29B1133D2996
:10032000861420222022202200000000000000006D
:100330000000061C082A202220222022202220221F
:10034000202200000000000000000000000000006B
:10035000000086102022202220222022202220227B
:1003600020222022202200000000000000000000C7
:100370000000000000006B29801FBF29D6298614C9
:10038000000000000000000000000000000000006D
:1003900000000000000000000000800DB60BF929ED
:1003A0008610B71982293719792970298614800D8A
:1003B000061C3D290000000000000000061C3D292D
:1003C00020220000000000000000000000000000EB
:1003D0000000061C0F2A00000000000000000000C2
:1003E0000000B60BF9298610B71982293719792927
:1003F00070298610000000000000000000000000CE
:100400000000000000000000000000000000BC2907
:10041000B115B1148610D8308B008B143529801398
:10042000B60B132A35293116B114D8308B008B1432
:10043000352986105230A700A70B1C2A8614080005
:1004400000000000000000000000000000000000AC
:100450000000000008001E30B0004F30AF00B00BAD
:0C046000322AAF0B2F2A342A00000800BB
:02400E00303F41
:0842000003000200050040006C
:00000001FF
