:020000040000FA
:020000003D2998
:08000800A000030EA1000B1182
:10001000AC180B281228AC1D52280E28AF0A9B30B2
:10002000810016280830B3001E3081000C187C2097
:10003000051922280B191D2816282F19AC28AF0ADC
:100040000B1112283A3084000330B200AF0B2A287B
:1000500030102F28AF0BAC28301405162F28051DA3
:100060002F280B11913081000C187C20051D3F2892
:100070000B193B283428B118AC28B10A3128B10B30
:10008000AC2842280B11913081000519AC280B19BE
:100090004A2845280B11E1308100051952280B1917
:1000A000AC284D280B11E8308100F830A800A80FCB
:1000B0005A28AC28051957285D280B1D60286A2886
:1000C0000310800DB30B7728840A0830B300B20BFD
:1000D000742894280314800DB30B7728840A083001
:1000E000B300B20B74289428051D742852280C18EC
:1000F0007C20051D742852280C10851A8D28051E99
:1001000082288D28AE1F08002E1805162E1C851675
:100110005B088F005C088E000800051285125D08E0
:100120008F005E088E0008002C17BC1BA528BB0B97
:100130009A28A328BB0A301CAC2878303C05083A22
:10014000031DAC28A928BB0AAC280830A900AC16AE
:10015000AC283C08A900AC16AF01B1018B10AC1063
:10016000AC10AC11B001210E8300A00E200E0900CE
:100170008B13A91B20292919C228A918C5282918B9
:10018000C828202929181029FE282918EC28DA283F
:100190008230AE000512851ECE28D4284B08DB0025
:1001A0004C08DC00851624295308DD005408DE00C5
:1001B000851224298430AE000512851EE028E62829
:1001C0004D08DB004E08DC00851624295508DD00AB
:1001D0005608DE00851224298830AE000512851EDF
:1001E000F228F8284F08DB005008DC008516242987
:1001F0005708DD005808DE00851224298130AE0042
:100200008512051E04290A295108DB005208DC006A
:10021000051624295908DD005A08DE000512242994
:10022000AC1E242908302E180C30AE1809302E19B7
:100230000A30AE190B30AD00A900AC12A421B229CE
:10024000AE01051085102429851A2929051E2E299D
:1002500029295B088F005C088E0032295D088F0019
:100260005E088E008B170C10AC129E297F39831606
:100270009B001C141A088312080083160C3085009A
:100280009F0108308100FF2390008312013090000D
:10029000073099008501003081008B1085140930EA
:1002A000A50000303621BA0001303621BB000230F3
:1002B0003621BD0003303621BE0004303621BF0098
:1002C00005303621C00006303621C1000730362106
:1002D000C20008303621C30009303621C4000B307B
:1002E000A9003D0873224708CB004808CC00450808
:1002F000D3004608D4003E0873224708CD004808C2
:10030000CE004508D5004608D6003F0873224708AE
:10031000CF004808D0004508D7004608D80040085C
:1003200073224708D1004808D2004508D900460882
:10033000DA0068226822D0308B00B828B4010C188B
:10034000B8289E298B179E298B170B11AC122830C9
:100350008100051DA429051DA4290B1DAB29AC1E78
:100360000800A4298B130B130B123508BB002D08B2
:10037000BC000330BA003F3084000330B200051DDA
:100380009E295522DF29840A0830B300B414132AA9
:1003900000000000800DB203840A0830B300341559
:1003A000132A00000000800DB203840A0830B30055
:1003B000B415132A800DB2035D228514A229851479
:1003C0005D225D225D2200000000000000000000B0
:1003D00000000000051D452A5D225D225D225D2290
:1003E0005D225D220000000000000000000000000F
:1003F00000000000000085105D225D225D225D226C
:100400005D225D225D225D225D2200000000000071
:1004100000000000000000000000000000000000DC
:1004200000000000C329801F162A222A85165D229B
:100430000000800DB30B422A8512B419DA29341951
:10044000D129C82985165D2200000000051DA229BA
:10045000000000000000000000000000000000009C
:10046000800D051D4B2A0000000000000000000068
:1004700000000000B30B422A8512B419DA2934199E
:10048000D129C82985125D22132AAC15AC14D030AD
:100490008B008B149E298013B30B4F2A9E292C1698
:1004A000AC14D0308B008B149E2985105230A700DD
:1004B000A70B582A5B2A85140800000000000000E2
:1004C0000000000000000000000000000000080024
:1004D0001E30AB004F30AA00AB0B6F2AAA0B6C2A60
:1004E000712A00000800CA00643CC900FF30C8003F
:1004F000C700C600C500CA0B7E2A832A0A30C8027C
:10050000031CC7037B2AC90B862A08000A30C602CF
:06051000031CC503832A51
:02400E00A43FCD
:1042000003000400140028006300140014002800B8
:044210003C0014005A
:00000001FF
