:020000040000FA
:02000000D828FE
:040002000034003492
:08000800A000030EA1000B1182
:10001000AC180B281228AC1D4D280E28AF0A9B30B7
:10002000810016280830B3003530810005192028DA
:100030000B191B2816282F198428AF0A0B11122818
:10004000403084000130B200AF0B282830142C2837
:10005000AF0B8428B0142C28051D2C280B119130CF
:100060008100051D3A280B1936283128B11884283B
:10007000B10A2E28B10B84283D280B119130810044
:10008000051984280B19452840280B11E1308100FF
:1000900005194D280B19842848280B11EA308100D6
:1000A0000519502853280B1D562868280310800D69
:1000B000B30B6528840A0830B300B20B65282C1BEB
:1000C0007A282C17C0034008B200051D65284D286A
:1000D0000314800DB30B7728840A0830B300B20BE9
:1000E00077282C1B7A282C17C0034008B200051D66
:1000F00077284D28C21B81287C304205043A031D15
:1001000084284208A900AC16AF01B1018B10AC10D5
:10011000AC10AC112C13210E8300A00E200E090090
:10012000A91BCA28A91897282918AB28CA28421839
:10013000BC289A282E150510851C9F28A528EC3070
:100140008F0077308E008514CE28D8308F00EF30A6
:100150008E008510CE28AE148510051CB028B62858
:10016000EC308F0077308E000514CE28D8308F0009
:10017000EF308E000510CE28AC1ECE2804302E188D
:100180000430AE1805302E190630AD00A900AC12AF
:10019000052112292E1405108510CE280C10AC1242
:1001A000FC287F3983169B001C141A088312080050
:1001B00083161C3085009F0108308100FF239000CA
:1001C00083120130900007309900850100308100D2
:1001D0008B1085160930A6000030D120C0000130F8
:1001E000D120B5000230D120C2000130A500D030AE
:1001F0008B00C921C9219028B401AC1A90280C1891
:100200009028FC28D0308B00FC28D0308B000B11BC
:10021000AC1214308100051D0529AC1A05290B1DEF
:100220000D2908008B130B130B123508C1002D0884
:10023000C2000330C0003F3084000330B200051D0F
:10024000FC28B6214029840A0830B300B41474296C
:100250002C170000800DB203840A0830B300341557
:10026000742900000000800DB203840A0830B30036
:10027000B4157429800DB203BE2185162C130229F2
:100280008516BE21BE21BE21000000000000000036
:10029000000000000000051DA629BE21BE21BE21D0
:1002A000BE21BE21BE2100000000000000000000B1
:1002B00000000000000000008512BE21BE21BE210A
:1002C000BE21BE21BE21BE21BE21BE2100000000F4
:1002D000000000000000000000000000000000001E
:1002E0000000000000002329801F7729832985163C
:1002F000BE210000800DB30BA3298512B4193A2941
:100300003419312928298516BE210000000000007B
:1003100000000000000000000000000000000000DD
:100320000000800D051DAC29000000000000000049
:10033000000000000000B30BA3298512B4193A296C
:100340003419312928298512BE217429AC15AC1421
:10035000D0308B008B14FC288013B30BB029FC2801
:100360002C16AC14D0308B008B14FC288512523024
:10037000A800A80BB929BC298516080000000000B8
:10038000000000000000000000000000000000006D
:1003900008001E30AB004F30AA00AB0BD029AA0BCF
:0803A000CD29D229000008005C
:02400E00A43FCD
:06420000FF00FF000400B6
:00000001FF
